:020000040800F2
:1000000068060020ED010008A32C0008692A0008FA
:10001000A12C00084D070008FD3A00080000000070
:10002000000000000000000000000000A72C0008F5
:10003000FF08000800000000A52C0008A92C0008FB
:10004000070200080702000807020008070200086C
:10005000070200080702000807020008070200085C
:1000600007020008070200080702000851070008FD
:10007000070200080702000807020008070200083C
:10008000070200080000000007020008070200083D
:10009000070200080702000807020008070200081C
:1000A000070200080702000807020008070200080C
:1000B0003D2D00080702000807020008070200089B
:1000C00007020008070200080702000807020008EC
:1000D00007020008070200080702000807020008DC
:1000E00007020008070200080702000807020008CC
:1000F00007020008070200080702000800000000CD
:1001000000000000070200080000000007020008CD
:1001100007020008000000000702000807020008AC
:10012000070200080702000807020008070200088B
:10013000070200080000000000000000070200089D
:10014000070200080702000800000000000000008D
:10015000000000000000000000000000000000009F
:10016000000000000000000000000000070200087E
:10017000070200080000000000000000000000006E
:10018000000000000702000800000000000000005E
:10019000000000000000000000000000000000005F
:1001A000000000000000000007020008070200082D
:1001B000070200080702000807020008000000000C
:1001C000000000000702000800000000000000001E
:1001D0000702000807020008DFF80CD000F0F6F96B
:1001E000004800473D3B000868060020064880475D
:1001F00006480047FEE7FEE7FEE7FEE7FEE7FEE70C
:10020000FEE7FEE7FEE7FEE7212D0008D901000822
:100210002DE9F05F0546002092469B46884606463B
:10022000814640241BE0284641464746224600F0CE
:1002300060F953465A46C01A914110D311461846E8
:10024000224600F047F92D1A67EB01084F46224677
:100250000120002100F03EF917EB00094E41201E5D
:10026000A4F10104DFDC484631462A464346BDE896
:10027000F09FD2B201E000F8012B491EFBD270477B
:100280000022F6E710B513460A4604461946FFF762
:10029000F0FF204610BD2DE9FE4F81EA030404F073
:1002A000004421F0004100944FF0000B23F0004384
:1002B00050EA01045ED052EA03045BD0C3F30A544F
:1002C000C1F30A552C44A4F2F3340194A0FB025468
:1002D000C1F3130141F48011C3F3130343F48013FA
:1002E00001FB024400FB034E840A970A44EA81544E
:1002F00047EA8357A4FB076802958D0A05FB07852B
:100300004FEA932C04FB0C542705029D4FEA065834
:1003100047EA1637B5EB08056EEB070C870E920E11
:1003200047EA811742EA8312A7FB0201B6EB0B01F1
:1003300064EB00042B0D43EA0C335E1844EB1C50B5
:10034000DA465146E7FB0201C5F313044FEA0B33CB
:1003500043EA14534FEA0432019C43EA0603A4F132
:100360000C040294009CCDE900B400F0E1F803B065
:10037000BDE8F08F00200146F9E72DE9F04D81EA54
:10038000030404F0004B21F0004514464FF0000A2E
:1003900023F0004150EA050220D054EA01021DD0AA
:1003A000C5F30A570246C5F31303C1F31300C1F3A3
:1003B0000A5640F4801543F48013A7EB0608101B7F
:1003C000D64608F2FD3873EB050002D308F10108A8
:1003D00001E092185B41B8F1000F03DA00200146FA
:1003E000BDE8F08D00204FF48011064684460EE0F3
:1003F000171B73EB050705D3121B63EB05030643BD
:100400004CEA010C49084FEA300092185B4150EA6F
:100410000107EDD152EA030012D082EA040083EA18
:100420000501084305D0101BAB4106D20122002371
:1004300006E000224FF0004302E06FF0010253108B
:100440001AEB06004CEB085110EB0A0041EB0B01D4
:10045000BDE8F04D00F05DB80EB540F233410291B9
:100460000021CDE900110A460B4600F061F803B007
:1004700000BDC1F30A5210B5C1F3130140F2FF33BE
:1004800041F480119A4201DA002010BD40F233435A
:100490009A42A2F2334203DC524200F02AF810BD25
:1004A000904010BD30B5041E71F1000404DB4FF024
:1004B0000044404264EB0101141E73F1000405DBAB
:1004C0001C464FF00043524263EB0403994208BFBD
:1004D000904230BD202A04DB203A00FA02F10020CD
:1004E00070479140C2F1200320FA03F31943904072
:1004F0007047202A04DB203A21FA02F000217047DD
:1005000021FA02F3D040C2F120029140084319467B
:10051000704710B5141E73F1000408DA401C41F155
:10052000000192185B411A4301D120F0010010BD77
:100530002DE9F04D92469B4611B1B1FA81F202E0ED
:10054000B0FA80F220329046FFF7C4FF04460F460F
:1005500040EA0A0041EA0B0153465A46084313D0C9
:10056000114653EA010019D0C8F140025046FFF786
:10057000C0FF05460E46504659464246FFF7AAFFC1
:10058000084305D0012004E020463946BDE8F08D3F
:100590000020054346EAE0762C4337430A9863057A
:1005A000E40AA0EB08000022FD0A44EA47540A309E
:1005B00002D500200146E9E7010510196941DDE98E
:1005C000084500196941BDE8F04DA2E7064C074D0A
:1005D00006E0E06840F0010394E807009847103413
:1005E000AC42F6D3FFF7FCFD9C3C0008BC3C000885
:1005F00010B5846AE16D11F0500F06D0E16DC906A7
:1006000025D5204600F0DAFB10BDE06D40F4007007
:10061000E06520680168090716D502F034FA78B160
:100620002068C068800400280ADBE06D20F4807038
:10063000E065E06DC00403D4E06D40F00100E065CA
:10064000204600F0B9FB10BDC0688007EBE7616D84
:10065000496BBDE81040084710B5806AC16D41F094
:100660004001C165016E41F00401016600F0A6FB86
:1006700010BD10B5806A00F0A0FB10BD70B5044637
:10068000006881688268C1F3400112F0010F24D034
:1006900019BB816801F00D01012910D18168104A50
:1006A0001140891C816021680320086000F03EFF32
:1006B00005460EE000F03AFF401B022809D9E06D24
:1006C00040F01000E065206E40F00100206601203F
:1006D00070BD20688068C007ECD1002070BD0000AC
:1006E000C0FFFF7F70B504460068816811F0010FFC
:1006F00028D18168144A114215D18168D543294017
:10070000491C816000F012FF064616E0816811F076
:10071000010F03D181682940491C816000F006FF68
:10072000801B022809D9E06D40F01000E065206EC2
:1007300040F001002066012070BD20680168C943B7
:10074000C907E3D1002070BD3F000080FEE7000034
:100750002DE9F04136482DED028B00F0EFFC354DD0
:100760006868401C68602878401CC2B232482A7011
:10077000EB6801680A2A1944E96040682B6918444B
:10078000286151D12822B1FBF2F4AC61FFF764FE7D
:100790009FED2A1B53EC112BFFF7EFFDFFF769FECE
:1007A000074668612046FFF757FE9FED261B53EC76
:1007B000112BFFF770FD41EC180B384685ED088BC7
:1007C000FFF74AFE9FED211B53EC112BFFF763FD52
:1007D00041EC100B00261F4C85ED0A0B642F01D253
:1007E000268014E053EC182B51EC100BFFF75AFE47
:1007F000208805D2642801D2643004E00A3002E087
:10080000502804D91438208080B2642801D2268070
:1008100004E043F22051884200D921800E4920880B
:100820000860EE602E612E70BDEC028BBDE8F08199
:100830000402002010000020000000200000000042
:100840000000024007F0164850FC983FFF092E5662
:10085000D4604A3F08000020382C01400D4902684E
:100860008A4201D20C4901E00B492031D2B2142353
:10087000083AB2FBF3F2436C02F01F0223F00303C9
:100880001944816404498031C164012191400165AA
:100890007047000008040240000802400179074A3E
:1008A00002EB81024265054A4432491E826501F02D
:1008B0001F0201219140C16570470000FC08024001
:1008C00030B5D0E913456560446D14B1D0E91645E3
:1008D000656090F8444004F01F050124AC40056CAD
:1008E0006C60046863608368102B036803D09960B0
:1008F0000068C26030BD9A600068C16030BD70475A
:1009000070470000F8B500260446009690F858009D
:100910000D4601280BD0012084F858002046FFF72F
:10092000ADFE0100E06D04D040F010002AE002208E
:10093000F8BD20F4885040F00200E065206882682D
:10094000134B1A4005F080431A4342F00042826084
:10095000104A20680EE0009B5B1C0093934209D371
:10096000E06D20F0020040F01000E06584F858606F
:100970000120F8BD8368DB0FEDD1E06D20F00200AF
:1009800040F00100E06584F858600846F8BD0000BA
:10099000C0FFFF3F02DE04002DE9F84F00270446A8
:1009A000009790F85800DFF8DC930D46B846012810
:1009B00011D0012684F85860206802F060F860B118
:1009C000E06D40F02000E0655FF0010784F858809A
:1009D0003846BDE8F88F0220FBE7D5E900210C235B
:1009E000206803EA91131844036B01F01F014FF0D4
:1009F0001F0C0CFA01FCC2F3846223EA0C038A4048
:100A000013430363206802F03AF88246206802F03C
:100A100032F85AEA00003CD1AA6829682068B2F18D
:100A2000004F37D002F037F82068416921F00041CB
:100A3000416120686969C268C2F3C10252009140F5
:100A40002A69042A31D000EB82002B68026EDFF89D
:100A500038C303F0F84302EA0C020B431A4342F096
:100A60000041016622682869A96902EB8000026ED4
:100A700022F080720A430266297F20682A690129D0
:100A800010D0002100EB8200026E22F000720A43B7
:100A900002667DE0002201F0FEFF2068416941F01E
:100AA0000041C5E74FF00071ECE7002101F0DDFFE8
:100AB000400320684FF0000172D001F0D6FF90FA99
:100AC000A0F0B0FA80F1286842036ED090FAA0F04E
:100AD000B0FA80F0814204D100221146206801F072
:100AE000E9FF0121206801F0C0FF400320684FF0BA
:100AF00001015DD001F0B9FF90FAA0F0B0FA80F1E9
:100B00002868420359D090FAA0F0B0FA80F08142F0
:100B100004D100220121206801F0CCFF02212068CD
:100B200001F0A3FF400320684FF0020148D001F01C
:100B30009CFF90FAA0F0B0FA80F12868420344D0FC
:100B400090FAA0F0B0FA80F0814204D10022022194
:100B5000206801F0AFFF0321206801F086FF400309
:100B600020684FF0030133D001F07FFF90FAA0F02E
:100B7000B0FA80F1286842032FD090FAA0F0B0FAC2
:100B800080F0814204D100220321206801F092FF0D
:100B90002068816811F0010F22D0ACE000E004E091
:100BA00001F063FFC0F384618DE7C0F3846091E7D7
:100BB00001F05BFFC0F38461A2E7C0F38460A6E7A5
:100BC00001F053FFC0F38461B7E7C0F38460BBE773
:100BD00001F04BFFC0F38461CCE7C0F38460D0E741
:100BE0002A7B296850F8B03FC1F3120C23EA0C03AA
:100BF00002F0180C654A22FA0CF20A401343036013
:100C0000E968494577D1286841031CD090FAA0F1E2
:100C1000B1FA81F1491C01F01F0109294FEA403165
:100C200032D8002912D000BF90FAA0F1B1FA81F1B8
:100C300001F1010101F01F0106FA01F609D100BF1F
:100C4000C0F3846109E0C0F38461E3E7C0F3846129
:100C5000EEE790FAA0F1B1FA81F101F1010101F0A2
:100C60001F0146EA816102D1C0F3846003E090FA7B
:100C7000A0F0B0FA80F000F1010000F01F0000EBDE
:100C8000400041EA005132E000290ED090FAA0F174
:100C9000B1FA81F101F1010101F01F0106FA01F63B
:100CA00006D100BFC0F3846106E0C0F38461F1E7C0
:100CB00090FAA0F1B1FA81F101F1010101F01F01F7
:100CC00046EA816102D1C0F3846003E090FAA0F0AB
:100CD000B0FA80F000F1010000F01F002C4A00EB98
:100CE000400002EB005041EA000141F00071AA68A7
:100CF000206801F0D0FE27482A6802423FF466AE21
:100D000025488168254B01F0E0719A4202D0244BBE
:100D10009A421BD10B0219D42268B2F1A04F7FF482
:100D200055AE826841F4000122F0E0720A4382600D
:100D30001C481D490068B0FBF1F000EB400080004A
:100D400000E0401E00900028FBD13FE6174D184BF5
:100D5000AA4207D1CD0105D422689A42F5D041F0CC
:100D6000807109E0134DAA42EFD14A02EDD4226806
:100D70009A42EAD041F48001826822F0E0720A438C
:100D8000826023E600007F4000F0FF03FFFF0700C2
:100D9000000020FE0000088000030050000021C376
:100DA0001000C0904C000020400D0300000052C70E
:100DB00000010050000084CB70477047704700006E
:100DC000F8B54FF0000504002E46009502D0E06D06
:100DD00010B107E00120F8BD204600F0EDF82666CE
:100DE00084F8586020688168C1F3407119B1816846
:100DF000694A1140816020688168C1F3007179B946
:100E00008168664A114041F08051816064486549BB
:100E10000068B0FBF1F000E0401E00900028FBD11C
:100E200020688168C1F3007141B9E16D41F01001A2
:100E3000E165216E41F001012166012501F01FFEEF
:100E4000E16DC90600D430B1E06D40F01000E065FE
:100E500001252846F8BDE06D20F4807040F00200C6
:100E6000E0652068806810F0010F11D14FF0A040BC
:100E700080684D4900F00100896801F001010843D4
:100E800006D14A486168826822F47C120A43826073
:100E9000E168E06B627F0843A16841EA42310843A0
:100EA00094F8241040EA0140012904D1218D404AE0
:100EB00002EB41410843E16A29B101F47871226BE8
:100EC000014342EA01002168CA683A4B1A400243D2
:100ED000CA6020680169626B21F0406111430161C1
:100EE000206801F0CCFD0646206801F0C4FD3043C7
:100EF0002ED1207F94F83810800340EA4102206808
:100F0000C16844F2020399431143C160206900287B
:100F1000206801690AD041F480310161206850F8ED
:100F2000C01F22696FF30D01114307E021F48031E6
:100F30000161206850F8C01F6FF30D01016094F843
:100F4000400001280CD02068016921F001010161F5
:100F5000606901282068016B21F00F0111D013E0B6
:100F6000D4E911010843D4E913121143084321685D
:100F70000A6940F2FC739A43104340F00100086193
:100F8000E6E7226A521E11430163E06D20F0020081
:100F900040F00100E0655CE7C0FFFF5FC0FFFF7F3E
:100FA0004C000020400D03000001005000030050E1
:100FB0000000FEFF0740F0FF70B586B00546142123
:100FC0006846FFF75DF91D492868884233D11C49FE
:100FD000C86C40F40050C864C86C00F40050059020
:100FE000C86C40F00100C864C86C002600F0010025
:100FF0000590102000900320CDE9010669464FF0CE
:10100000904000F0B1F9104C0E4820602420C4E953
:1010100001068020C4E90360800060618000A06157
:101020002020C4E90706204600F0E6F808B1FFF7E3
:1010300067FC6C65A56206B070BD00000001005041
:101040000010024008000240040200202DE9F04197
:101050000446344817468846806800F01F0520681B
:1010600001F00DFD00285AD194F85800012856D0FF
:10107000012084F85800002625B1052D02D0092D45
:1010800000D003E02046FFF72DFB18B184F858602C
:10109000BDE8F081E06D40F60161884340F4807066
:1010A000E06521492068884202D14FF0A04100E06C
:1010B0000146814200D01DB9E06D20F48010E0654A
:1010C000E06DC00404D5206E20F00600206600E02C
:1010D0002666616D1548C862616D15480863616DCB
:1010E0001448486321681C20086084F85860206810
:1010F000416841F0100141602068C16841F0010180
:10110000C16021683B4642464031606D00F0D4F832
:1011100021688A68084B1A40121D8A60B8E70220CD
:10112000B6E700000003005000010050F105000880
:101130007306000859060008C0FFFF7FF0B4016C79
:101140000C6801680D6890F8442002F01F06042224
:1011500002FA06F3234211D06B070FD50B689B06EA
:1011600003D40B6823F004030B6090F8441001F0E3
:101170001F018A40016C4A60016B1DE0022303FAE3
:1011800006F727424FF0000C4FF0010218D0AF07CE
:1011900016D50C68A40605D40C6824F00A040C606B
:1011A00080F8252090F8441001F01F018B40016C5D
:1011B0004B6080F824C0C16A00291AD0F0BC0847EF
:1011C0000823B340234214D02B0712D50B6823F019
:1011D0000E030B6090F84410036C01F01F0102FA3B
:1011E00001F15960C26380F8252080F824C0416B6A
:1011F000E2E7F0BC7047000070B504000CD02B4A49
:1012000021681420914209D2294A0A44B2FBF0F025
:101210008000606427480AE0012070BD234A5242E2
:101220000A44B2FBF0F08000606420480838206473
:10123000022084F825000A6847F6F0708243D4E95A
:1012400002031843D4E904352B431843A369184318
:10125000E3691843236A1843104308602046FFF7E8
:10126000FDFAA0680025B0F5804F00D16560A16C43
:1012700020790860D4E9130141606068401E0328AA
:1012800008D82046FFF70AFB606D0560D4E9160117
:10129000416002E06565A565E565E563012084F8C8
:1012A000250084F82450002070BD0000080402408E
:1012B000F8FFFDBF0000024070B5044690F824001E
:1012C000002501280CD0012084F8240094F8256022
:1012D0000020012E06D084F824000225284670BD87
:1012E000022070BD022684F82560E063206806684D
:1012F00026F0010606602046FFF7E2FA206B002880
:101300002068016802D041F00E0106E021F00401DE
:1013100001602068016841F00A010160A06C016869
:10132000C90303D5016841F480710160606D18B193
:10133000016841F4807101602068016841F0010199
:101340000160CBE770B5044600F0F0F80546601C7C
:1013500002D004484068044400F0E8F8401BA04272
:10136000FAD370BD400000202DE9F84FDFF890B1AE
:10137000002301274FF0030A4FF00F090BF1040E71
:10138000B6E000BF07FA03F6324070D04C68022C7A
:1013900001D0122C10D1DC0800EB8408D8F82040D2
:1013A0005D074FEAD56C09FA0CF5AC430D6905FAF7
:1013B0000CF52543C8F82050D0F800805D0091F866
:1013C00004C00AFA05F40CF0030C28EA04080CFA2D
:1013D00005FC4CEA080CC0F800C0D1F804C0BCF110
:1013E000010F08D0BCF1020F05D0BCF1110F02D0E3
:1013F000BCF1120F16D1D0F808C0D1F80C802CEA3D
:10140000040C08FA05F848EA0C08C0F80880D0F87F
:1014100004C02CEA060C0E79C6F300169E4046EA7C
:101420000C064660C668A6438C68AC403443C46072
:101430004C68E4005BD5334C256E45F0010525660C
:10144000246E23F0030504F0010400942E4C2E19A1
:10145000B4689D074FEA157C09FA0CF5AC43B0F16E
:10146000904F05D0294DA84204D1012517E03EE058
:10147000002514E0264DA84201D102250FE0254D9C
:10148000A84201D103250AE0234DA84201D1042539
:1014900005E0224DA84201D1052500E0062505FA08
:1014A0000CF52543B560DBF800405D464E6894437B
:1014B000F60300D514432C60DEF8004075464E68F4
:1014C0009443B60300D514432C600D4D08352C68A9
:1014D0004E689443F60200D514432C60084D0C3539
:1014E0002C684E689443B60200D514432C605B1CF4
:1014F0000A6832FA03F47FF445AFBDE8F88F0000C4
:1015000000040140001002400000014000040048B7
:1015100000080048000C0048001000480014004873
:101520000AB181617047816270470000014880689C
:101530007047000040000020024881684268114462
:10154000816070474000002010B50024032000F0A7
:1015500071F8002000F008F808B1012401E000F063
:1015600025F8204610BD000070B50E4E054600243B
:10157000706898B14FF47A71B1FBF0F00A490968CC
:10158000B1FBF0F000F00AFE40B9102D06D20022A7
:101590002946501E00F02EF8356000E00124204658
:1015A00070BD0000400000204C000020094808B534
:1015B000016E41F001010166016E01F0010100912F
:1015C000816D41F080518165806D00F08050009008
:1015D00008BD000000100240002809DB00F01F02D7
:1015E000012191404009800000F1E020C0F8001185
:1015F00070470000F0B40E4B1B680C46C3F3022387
:10160000C3F10705042D00D90425191D072901D2AE
:10161000002300E0DB1E012606FA05F1491E2140E9
:1016200099409E40761E16403143F0BC02F067BAE6
:101630000CED00E0064900F0070208684FF6FF03D2
:10164000184040EA0220034A104308607047000037
:101650000CED00E00000FA05F8B504004FF00005BD
:1016600014D094F83A00052810D094F83A000228D3
:101670000CD03448016E41F001010166006E00F0AB
:101680000100009094F83A0010B104E00120F8BD88
:10169000002084F83900204600F058F8A0682A4A53
:1016A0004FF48071402836D0602834D02068036819
:1016B000E66A23F0100333430360D4E901031843BF
:1016C000D4E9033633431843237D012B00D0002196
:1016D0000843616A0843A16A0843218E40EAC14079
:1016E00094F8341040EA01612068036813401943FC
:1016F000016020688169002909DBD4E906121143E1
:10170000226A836923F03F031A431143816194F8ED
:101710003A0090B114E020680368E66A23F01003F1
:1017200033430360D4E901031843267D2369012E66
:1017300000D000210B431843CBE7012084F83A0086
:101740002846F8BD00100240113E00E010B586B0FA
:10175000044614216846FEF793FD0D49206888422F
:1017600013D10C48C16C41F00101C164C06C6946E1
:1017700000F001000590E02000900320019000207F
:1017800002904FF09040FFF7EFFD06B010BD000053
:101790000403014000100240002138B190F83A20C3
:1017A000052A03D090F83A20012A02D001210846E8
:1017B00070470268136843F001031360042280F845
:1017C0003A20F4E72B492C4B0A6832214A432B4933
:1017D00040B1B0F5007F086829D020F4C06040F423
:1017E00080602CE00868C0F34120022804D051F842
:1017F000800F20F4807022E0D1F8800020F4807007
:10180000C1F88000086820F4C06040F400700860EF
:10181000B2FBF3F0401C00E0401E4A69520501D5BE
:101820000028F9D1486940050AD503207047C0F364
:101830004120022806D051F8800F40F480700860E3
:1018400000207047D1F8800040F48070C1F880001B
:10185000086820F4C06040F400700860B2FBF3F048
:10186000401C00E0401E4A695205DBD50028F9D132
:10187000D8E700004C00002040420F0000700040FC
:101880002DE9F8430446006800269D4D00035ED50F
:10189000A86D0027C00008D4A86D40F08050A8654E
:1018A000A86D012700F080500090DFF85892D9F819
:1018B000001041F48071C9F80010FFF737FE804630
:1018C00006E000BFFFF732FEA0EB080002282BD88D
:1018D000D9F80000C005F5D5D5F8900010F4407097
:1018E00014D0216C814211D0D5F89000D5F8901019
:1018F00020F4407041F48031C5F89010D5F8901074
:1019000021F48031C5F89010C5F89000C00711D0BF
:10191000FFF70CFE804641F2883907E0FFF706FE2C
:10192000A0EB0801494501D903260BE0D5F890004A
:101930008007F3D5D5F89000216C20F4407008435F
:10194000C5F890001FB1A86D20F08050A8652078E0
:10195000C00707D0D5F88800616820F0030008436D
:10196000C5F888002078800707D5D5F88800A168D9
:1019700020F00C000843C5F888002078400707D500
:10198000D5F88800E16820F030000843C5F88800E9
:101990002078000707D5D5F88800216920F0C0001D
:1019A0000843C5F888002078800607D5D5F8880058
:1019B000616920F440600843C5F88800207840063B
:1019C00007D5D5F88800A16920F440500843C5F830
:1019D00088002078000607D5D5F88800E16920F452
:1019E00040400843C5F888002088C00507D5D5F8D1
:1019F0008800216A20F440300843C5F88800208818
:101A0000800507D5D5F88800616A20F44020084396
:101A1000C5F88800208840050FD5D5F88800A16A50
:101A200020F440100843C5F88800A06AB0F5801F74
:101A300003D1E86840F48010E860208800050FD5E5
:101A4000D5F88800E16A20F440000843C5F8880012
:101A5000E06AB0F5800F03D1E86840F48010E860D8
:101A60002088C0040FD5D5F88800216B20F0407085
:101A70000843C5F88800206BB0F1807F03D1E86887
:101A800040F48010E86020884FF0006180040ED59B
:101A9000D5F88800626B20F040601043C5F88800DC
:101AA000606B884203D1E86840F48010E8602088C9
:101AB00040040ED5D5F88800A26B20F0406010439A
:101AC000C5F88800A06B884203D1E86840F4801014
:101AD000E860208800040FD5D5F88800E16B20F07D
:101AE00040500843C5F88800E06BB0F1805F03D137
:101AF000E86840F48030E8603046BDE8F8830000D4
:101B000000100240007000402DE9F0470E4605002D
:101B10004FF0000725D0DFF8AC81D8F8000000F0C6
:101B20000F00B0420CD2D8F8001021F00F01314361
:101B3000C8F80010D8F8000000F00F00B04210D133
:101B40002968614CC80741F2883A5AD06868DFF8C2
:101B50007C91032808D0022820682DD04005002859
:101B60002CDB0120BDE8F08720688001F9D5E06812
:101B700000F00302E068C0F30310401C032A19D0F0
:101B8000534A00BFB2FBF0F0E268C2F306225043B2
:101B9000E268C2F34162521C5200B0FBF2F04845C9
:101BA00017D9A06810F0F00F0CD0880711D5A868DD
:101BB00040B10EE0474AE5E78003D0E700F0B4F813
:101BC000484506D9A06820F0F00040F08000A060F1
:101BD0008027A068696820F003000843A060FFF731
:101BE000A5FC814606E000BFFFF7A0FCA0EB0901C1
:101BF00051453AD8A068696800F00C00B0EB810F3D
:101C0000F2D12868810714D5400703D5A06840F4B5
:101C1000E060A0602878000705D5A06820F4605037
:101C200040F4E060A060A068A96820F0F0000843DC
:101C300004E0802F03D1A06820F0F000A060D8F865
:101C40000010404601F00F01B14216D9016821F0A1
:101C50000F0131430160FFF769FC074607E000BF51
:101C6000FFF764FCC11B514501D903207AE7D8F87E
:101C7000000000F00F00B042F2D12878400705D5EF
:101C8000A068E96820F4E0600843A06028780007B5
:101C900006D5A068296920F4605040EAC100A06020
:101CA00000F042F8A1680C4AC1F30311515C01F045
:101CB0001F01C84009490860BDE8F0470020FFF750
:101CC00053BC0000002002400010024000B4C404D5
:101CD0000024F40000127A00843C00084C0000202C
:101CE0000548064900688968054AC1F30221515C2C
:101CF00001F01F01C84070474C0000200010024056
:101D0000943C00080548064900688968054AC1F303
:101D1000C221515C01F01F01C84070474C000020F7
:101D200000100240943C0008184910B58868C0F3C0
:101D300081021748012A0BD08A684310C2F381023E
:101D4000022A06D08A68C2F38102032A03D0002047
:101D500010BD184610BDCA6802F00304CA68C2F379
:101D60000312521C032C02D0B0FBF2F001E0B3FBD3
:101D7000F2F0CA68C968C2F306225043C1F3416158
:101D8000491C4900B0FBF1F010BD000000100240FA
:101D90000024F4002DE9F843040079D02078FA4DAE
:101DA000C00747D0A868E96800F00C0001F0030103
:101DB0000C2802D0082817D001E0032914D060684D
:101DC000B0F5803F17D0B0F5A02F286817D020F4C9
:101DD00080302860286820F4802028606068E0B1A6
:101DE000FFF7A4FB064614E02868800322D560684C
:101DF0000028D2D01EE0286840F48030EDE740F49F
:101E000080202860F7E700BFFFF790FB801B642865
:101E100070D828688003F7D50CE0FFF787FB0646EB
:101E200005E000BFFFF782FB801B6428F0D828681C
:101E30008003F7D4207880074CD5A868E96800F0C3
:101E40000C0001F003010C2802D004280DD001E0A1
:101E500002290AD0E068002828682BD040F480705E
:101E60002860FFF763FB064619E02868400502D5A5
:101E7000E068002891D06868217C20F0FE4040EAAC
:101E8000016068600020FFF76FFB002800D121E0AF
:101E900077E100BFFFF74AFB801B0228B8D828680B
:101EA0004005F7D56868217C20F0FE4040EA0160DB
:101EB00068600FE020F480702860FFF737FB06466B
:101EC00005E000BFFFF732FB801B0228A0D828687E
:101ED0004005F7D42078000729D560690028D5F897
:101EE000940013D040F00100C5F89400FFF71EFBEA
:101EF000064606E090E000BFFFF718FB801B0228B3
:101F000086D8D5F894008007F6D510E020F00100BF
:101F1000C5F89400FFF70AFB064604E0FFF706FB4E
:101F2000801B022878D8D5F894008007F6D4207852
:101F3000400761D5A86D0026C00008D4A86D40F008
:101F40008050A865A86D012600F0805000908F4851
:101F50000168C90511D40168804641F480710160AF
:101F6000FFF7E4FA074604E0FFF7E0FAC01B022897
:101F700052D8D8F80000C005F6D5A068012815D0C1
:101F80000528D5F8900016D020F00100C5F8900083
:101F9000D5F8900020F00400C5F89000A06841F248
:101FA0008838B8B1FFF7C2FA07460EE0D5F89000BE
:101FB00040F00100F0E740F00400C5F89000F5E7BC
:101FC000FFF7B4FAC11B414526D8D5F89000800729
:101FD000F6D50CE0FFF7AAFA074604E0FFF7A6FAE9
:101FE000C11B414518D8D5F890008007F6D41EB122
:101FF000A86D20F08050A8652078800629D5A069BA
:102000000028D5F8980013D040F00100C5F89800DA
:10201000FFF78CFA064606E077E000BFFFF786FA86
:10202000801B022877D8D5F898008007F6D510E0F5
:1020300020F00100C5F89800FFF778FA064604E0A2
:10204000FFF774FA801B022865D8D5F8980080073E
:10205000F6D4E069F0B3A968C1F38101032961D026
:102060000228286820F0807028600BD0E86820F0F3
:102070000300E860E86846490840E860FFF756FA60
:1020800004464BE0FFF752FA064604E0FFF74EFA2B
:10209000801B02283FD828688001F7D4F4E90801A2
:1020A0006FF00F0202EB01110843218A5204490824
:1020B00002EB4151A26841EA02210843217D4FF021
:1020C0007E42490802EB41610843217B40EAC1603E
:1020D000E96800E060E02F4A11400843E8602868A2
:1020E00040F080702860E86840F08070E860FFF79A
:1020F0001DFA044605E000BFFFF718FA001B02288E
:1021000009D828688001F7D546E004E0FFF70EFA09
:10211000001B022802D90320BDE8F883286880014B
:10212000F4D439E00128F7D0E868226A00F003010E
:10213000914226D1616A00F0F00209011039914202
:102140001FD1A26A00F4FE41B1EB022F19D194F81D
:102150002C2000F07841B1EBC26F12D1218E00F437
:10216000C00249084905A1F50011914209D194F82E
:10217000341000F0C06049084906A1F100718142A5
:102180000AD00120C8E700000010024000700040A3
:10219000FFFFEEFE0C809F010020BDE710B5401E42
:1021A000B0F1807F01D3012010BD4FF0E0246061C9
:1021B0000F21601701F0A3FC0020A061072020611F
:1021C000002010BD7047704770470000F0B590F8D0
:1021D0003C20012A4AD0012280F83C20CA688B6842
:1021E00022F440721A434B6822F480621A430B684F
:1021F00022F400621A430B6922F480521A434B699D
:1022000022F400521A430B6B22F480421A430B8BC8
:1022100022F4702242EA0342154C03680026154D51
:10222000A34201D0AB4203D1CF6922F080523A439E
:10223000A34201D0AB4214D10F8D22F4700242EAC6
:1022400007520F6A22F080723A434F6A22F00072FE
:102250003A43A34201D0AB4203D1C96A22F00052F3
:102260000A435A6480F83C600020F0BD0220F0BDB3
:10227000002C014000340140704770477047000057
:1022800070B590F83C20012A24D0012580F83C50FC
:10229000022280F83D2003685A689E680E4CA342D3
:1022A00002D00E4CA34203D122F470044A682243A8
:1022B0000B4C22400C688968144326F080021143BD
:1022C0005C600268916080F83D50002180F83C100D
:1022D000084670BD022070BD002C01400034014052
:1022E0008FFFFFFD704710B5040003D094F83D0048
:1022F00010B107E0012010BD002084F83C0020460A
:1023000000F00CF8022084F83D00211D206800F048
:1023100023FD012084F83D00002010BD08B50068B1
:10232000B0F1804F12D10A48816D41F00101816501
:10233000806D002200F00100009011461C20FFF784
:1023400059F9BDE808401C20FFF746B908BD000058
:10235000001002400168CA6842F00102CA600168C8
:102360008868064A1040062806D0B0F5803F03D0A2
:10237000086840F001000860002070470700010075
:1023800070B5044690F83C00012815D0012584F86A
:102390003C50022084F83D0022689068354B18407C
:1023A00020F47F4090600868B0F5805F50D010DC6A
:1023B00010F00F0F03D04BE04FF0020070BD4FEA5A
:1023C0002012082A44D2DFE802F05151515149321B
:1023D0003A1B294BC21A984248D00ADCB0F5005F7C
:1023E00019D0B0F1101F41D0A0F5801120392FD1A4
:1023F0003CE0102A3AD0302A38D0402A28D135E0A3
:10240000CB68D1E90121206800F00BFD20688168CC
:1024100041F0770109E0CB68D1E90121206800F0A3
:1024200000FD2068816841F48041816010E0CA6845
:102430004968206800F0A0FE5021206806E0CA68C4
:102440004968206800F0A9FE6021206800F0F4FCD3
:1024500084F83D50002084F83C0070BDCA6849688B
:10246000206800F089FE40212068EFE722680146DD
:102470001046EBE788FFCEFF30001000704770B5C4
:102480000446006801694FF00005C943890715D467
:10249000C168C943890711D4E91E01610120207771
:1024A000206880698007204602D0FFF7E7FF04E03C
:1024B00000F00CF9204600F0CDF92577206801697D
:1024C000C943490717D4C168C943490713D46FF0FA
:1024D00004010161022020772068806910F4407FA8
:1024E000204602D0FFF7CAFF04E000F0EFF82046D4
:1024F00000F0B0F9257720680169C943090716D4AF
:10250000C168C943090712D46FF0080101610420B2
:1025100020772068C0698007204602D0FFF7AEFF11
:1025200004E000F0D3F8204600F094F92577206805
:102530000169C943C90617D4C168C943C90613D480
:102540006FF010010161082020772068C06910F445
:10255000407F204602D0FFF791FF04E000F0B6F87C
:10256000204600F077F9257720680169C943C9073B
:1025700008D1C168C943C90704D1891E0161204639
:1025800000F0A0F920680169C943090609D4C168AF
:10259000C943090605D46FF0800101612046FFF7A9
:1025A00012FE20680169C943C90509D4C168C9433D
:1025B000090605D46FF4807101612046FFF702FE21
:1025C00020680169C943490609D4C168C94349065D
:1025D00005D46FF040010161204600F074F92068D5
:1025E0000169C943890609D4C168C943890605D46C
:1025F0006FF0200101612046FFF7E6FD20680169C8
:10260000C943C90209D4C168C943C90205D46FF4DA
:10261000801101612046FFF730FE20680169C9433F
:10262000890209D4C168C943890205D46FF4001135
:1026300001612046FFF720FE20680169C943490275
:1026400009D4C168C943490205D46FF4800101610E
:102650002046FFF713FE20680169C94309020BD425
:10266000C168C943090207D46FF400010161204623
:10267000BDE87040FFF736BE70BD000010B586B0F3
:10268000044614216846FDF7FBFD0E492068884288
:1026900016D10D48C16C41F00101C164C06C69469E
:1026A00000F0010005904FF40070009002200190AE
:1026B00002900390062004904FF09040FEF754FEE5
:1026C00006B010BD002C014000100240704770B5EC
:1026D000044690F83C000D4601280ED0012684F8EF
:1026E0003C60022084F83D000C2A45D007DC5AB13A
:1026F000042A1BD0082A78D12CE0022070BD102AB1
:102700004ED0142A71D15DE0206800F09FFB206854
:10271000816941F0080181612068816921F004012B
:102720008161206881692A69114311E0206800F005
:10273000DBFB2068816941F4006181612068816967
:1027400021F480618161206881692A6941EA02215E
:1027500081614AE0206800F00FFC2068C16941F007
:102760000801C1612068C16921F00401C1612068CC
:10277000C1692A69114311E0206800F045FC206816
:10278000C16941F40061C1612068C16921F48061BF
:10279000C1612068C1692A6941EA0221C16124E05E
:1027A000206800F079FC2068016D41F008010165A6
:1027B0002068016D21F0040101652068016D2A691E
:1027C000114311E0206800F09FFC2068016D41F486
:1027D000006101652068016D21F480610165206858
:1027E000016D2A6941EA0221016584F83D600020FB
:1027F00084F83C0070BD10B5040003D094F83D008F
:1028000010B107E0012010BD002084F83C002046F4
:1028100000F00CF8022084F83D00211D206800F033
:102820009BFA012084F83D00002010BD08B5006827
:102830000649884208D10648016E41F400610166EC
:10284000006E00F40060009008BD0000002C014004
:10285000001002407047000010B5044600680122D5
:1028600000F0D2FA1148216881420BD01048814211
:1028700008D01048814205D00F48814202D00F484D
:10288000814203D1486C40F400404864206881686C
:102890000B4A1140062906D0B1F5803F03D00168EC
:1028A00041F001010160002010BD0000002C01403A
:1028B0000034014000400140004401400048014014
:1028C000070001007047704790F87C10012918D06C
:1028D000012180F87C102421C0F8801050F8601B82
:1028E0000A680B6823F001030B6022F000510022FC
:1028F000426050F8603C1960202101620277104666
:1029000070470220704770B5044690F87C0001289B
:102910001DD0012084F87C002420C4F880002068A9
:102920000568026822F0010202602068826822F0D5
:1029300060620A438260204600F042FC2068056025
:102940002020C4F88000002084F87C0070BD0220A4
:1029500070BD70B5044690F87C0001281DD00120A0
:1029600084F87C002420C4F8800020680568026890
:1029700022F0010202602068826822F060420A436D
:102980008260204600F01CFC206805602020C4F80E
:102990008000002084F87C0070BD022070BD10B55E
:1029A000040003D0D4F8800010B107E0012010BD6E
:1029B000002084F87C00204600F026F82420C4F88B
:1029C00080002068016821F001010160204600F0CC
:1029D000BDFC0128EBD0A06A10B1204600F022FC1B
:1029E0002068416821F4904141602068816821F0AD
:1029F0002A0181602068016841F0010101602046E0
:102A0000BDE8104000F072BC10B586B00446142139
:102A10006846FDF735FC1249206888421ED11148EE
:102A2000816D41F400318165816D01F400310591C2
:102A3000C16C41F00101C164C06C694600F0010045
:102A400005900C200090022001900020029003903D
:102A5000072004904FF09040FEF786FC06B010BDB2
:102A60000044004000100240FEE700EB8100006ED1
:102A700000F0F84070478068C0F3C000704780687D
:102A8000C0F380007047C06810F4406F01D0002090
:102A9000704701207047042303EAD15310B518444E
:102AA0004369C1F3045107248C40A3438A40134374
:102AB000436110BD00EB8100016E21F00041114324
:102AC0000166704730B589B020216846FDF7D8FB14
:102AD0001C481B49002401608902C0E90114042537
:102AE00085610121C460C0E9044104774477022272
:102AF000026280F824404FF4A462C2628A02026338
:102B000080F83810C46380F84040FEF759F90E4849
:102B1000009006200190052002907F200594CDE9C9
:102B2000030569460748FDF737FF084800900C2069
:102B3000019069460348FDF72FFF09B030BD000042
:102B40000001005050000020000029C3000052473F
:102B500010B598B00024149415941C210DA8169457
:102B6000FDF78EFB34216846FDF78AFB2348224996
:102B7000C0E900144021816044F26721C0E90314D8
:102B800044618461FFF737FE302014904FF48000D9
:102B900015908020169014A91848FFF771FB60204B
:102BA000CDE90D040F9410941194129400220DA9F4
:102BB00012481394FFF78BFD04220DA90F480E94C1
:102BC000FFF785FD00944FF40050CDE904400394D5
:102BD0000003CDE9084001940294069407940A94F6
:102BE0000B94694605480C94FFF7F0FA0348FFF789
:102BF00045FD18B010BD0000002C0140F800002079
:102C000010B588B0002412480094019402940394F3
:102C1000049405944FF080410694016044F26721CA
:102C2000C0E9011442F20F71C0E903148461FFF797
:102C30005AFB4FF48050009069460548FFF7A0FB0F
:102C4000049404A902480694FFF71AFB08B010BDCB
:102C500038010020114810B50F4901604FF4E131EF
:102C60004160002181600C22C160C0E904128161D1
:102C7000C161016241628162FFF791FE0021074854
:102C8000FFF767FE00210548FFF73DFEBDE8104055
:102C90000248FFF719BE0000004400407801002000
:102CA000FEE7704770477047FEF746BC10B5A4B00A
:102CB00038216846FDF7E4FA14211FA8FDF7E0FA71
:102CC00044210EA8FDF7DCFA0020FEF77BFD022070
:102CD000C1010391402104910421CDE90801009034
:102CE0005521CDE90A1007900C900D906846FFF72A
:102CF00051F80F2000241F900320CDE920042294D6
:102D000008211FA82394FEF7FFFE48F202000E9050
:102D100000071D9010940EA8FEF7B2FD24B010BD60
:102D20000548016841F47001016003494FF00060FB
:102D3000803908607047000088ED00E010B5044855
:102D4000FFF79DFB0348416881600021416010BD91
:102D500038010020100000202DE9F0430268234BC9
:102D6000234D244E244C4FF08049984207D04845CB
:102D700005D0A84203D0B04201D0A04203D122F036
:102D800070074A683A431D4FDFF874C0DFF874805B
:102D900098420DD048450BD0A84209D0B04207D088
:102DA000A04205D0B84203D0604501D0404503D1D0
:102DB00022F44075CA682A434D6922F080022A43F2
:102DC00002608A68C2620A688262984207D0A042A2
:102DD00005D0B84203D0604501D0404501D1096912
:102DE000016301214161BDE8F0830000002C014036
:102DF0000004004000080040003401400040014051
:102E0000004401400048014010B501F01F030121BA
:102E1000046A99408C430462016A9A40114301623A
:102E200010BD10B5846842EA032224F47F440A43AB
:102E30002243826010BD00008268034B1A400A439F
:102E400042F00701816070478FFFCFFF2DE9F0430B
:102E5000026A22F001020262056A436882691C4C20
:102E600025F0020522400C6822F0030214438A6810
:102E7000194E2A43174D194FDFF864C0DFF86490EC
:102E8000A84207D0B04205D0B84203D0604501D077
:102E9000484506D122F00808CA6842EA080222F032
:102EA0000402A84207D0B04205D0B84203D0604522
:102EB00001D0484505D14D6923F440731D438B690A
:102EC0002B4343608461496841630262BDE8F0833B
:102ED0008FFFFEFF002C0140003401400040014004
:102EE0000044014000480140F0B5026A22F010029F
:102EF0000262056A42688369194C1B4E23400C68C4
:102F000023F4407343EA042425F020038D6843EA48
:102F10000513144DA84201D0B04206D1CF6823F06A
:102F2000800343EA071323F04003A8420AD0B042CB
:102F300008D00E4DA84205D00D4DA84202D00D4D2F
:102F4000A84207D14D6922F4406242EA85028D69A8
:102F500042EA850242608461496881630362F0BD90
:102F6000FF8FFFFE002C0140003401400040014073
:102F70000044014000480140F0B5026A22F480722A
:102F80000262056A4368C269194C1B4E22400C68F4
:102F900022F00302144325F400728D6842EA0522F0
:102FA000144DA84201D0B04206D1CF6822F400628D
:102FB00042EA072222F48062A8420AD0B04208D036
:102FC0000E4DA84205D00E4DA84202D00D4DA8428C
:102FD00007D14D6923F4405343EA05138D6943EA51
:102FE00005134360C4614968C1630262F0BD00001B
:102FF0008FFFFEFF002C01400034014000400140E3
:103000000044014000480140F0B5026A22F48052B9
:103010000262056A4268C369194C1B4E23400C6862
:1030200023F4407343EA042425F400538D6843EAF3
:103030000533144DA84201D0B04206D1CF6823F425
:10304000004343EA073323F48043A8420AD0B04246
:1030500008D00E4DA84205D00D4DA84202D00D4D0E
:10306000A84207D14D6922F4404242EA85128D6997
:1030700042EA85124260C461496801640362F0BD9E
:10308000FF8FFFFE002C0140003401400040014052
:10309000004401400048014030B5026A22F4803209
:1030A0000262046A4268036D114D2B400D681D4396
:1030B00024F400330C8943EA04430E4CA0420BD0A5
:1030C0000D4CA04208D00D4CA04205D00C4CA042A3
:1030D00002D00C4CA04204D14C6922F4803242EA66
:1030E00004224260056549688164036230BD0000C6
:1030F0008FFFFEFF002C01400034014000400140E2
:10310000004401400048014030B5026A22F48012B8
:103110000262046A4268036D114D24F400142B40CE
:103120000D6843EA05230D8944EA05540D4DA84274
:103130000BD00D4DA84208D00C4DA84205D00C4D27
:10314000A84202D00B4DA84204D14D6922F480223E
:1031500042EA8522426003654968C164046230BD69
:10316000FF8FFFFE002C0140003401400040014071
:10317000004401400048014010B5036A046A24F08D
:1031800001040462846924F0F00444EA021423F088
:103190000A020A438461026210BD10B5036A23F07B
:1031A000100303628369046A23F4704343EA023222
:1031B00024F0A00343EA01118261016210BD000006
:1031C0003FB514A1D1E90021CDE9002113A2D2E934
:1031D0000012CDE90212416EB9B10268916892689D
:1031E000C1F34261520F1DF80240E50002ACA25C3F
:1031F000B5FBF2F2A0F86A201DF80120615CD20054
:10320000B2FBF1F1A0F868103FBD0121A0F86A10EF
:10321000F8E70000010101030701000008040204AF
:103220000801010190F82810C90706D001684A6812
:10323000C36A22F400321A434A6090F828108907C2
:1032400006D501684A68036B22F480321A434A604B
:1032500090F82810490706D501684A68436B22F4A4
:1032600080221A434A6090F82810090706D50168A1
:103270004A68836B22F400421A434A6090F828108F
:10328000C90606D501688A68C36B22F480521A43C6
:103290008A6090F82810890606D501688A68036C50
:1032A00022F400521A438A6090F82810490611D57A
:1032B00001684A68436C22F480121A434A60416CE8
:1032C000B1F5801F06D101684A68836C22F4C00200
:1032D0001A434A6090F82810090606D501684A6822
:1032E000C06C22F4002202434A607047F8B5002601
:1032F0000446C0F88860FEF719F9054620680068A2
:103300006FF07E47000708D52B4600224FF40011CE
:103310002046009700F0C0FB60B9206800684007B5
:103320000AD52B4600224FF480012046009700F07A
:10333000B3FB08B10320F8BD2020C4F88000C4F816
:10334000840084F87C600020F8BD00002DE9F05F67
:103350000446016880682369E569184363690027AA
:103360002B431843636EF34A03430868F24D284029
:103370001843086020684168E36821F4405119430C
:1033800041602168A069914201D0236A18438B688B
:10339000EA4D2B4003438B602068C16A636A21F0C9
:1033A0000F011943C162E64B2068E64998420DD1EE
:1033B000D1F8881011F0030106D001295AD0022952
:1033C00056D003293FD157E001253DE0DE4B98421E
:1033D0000BD1D1F8881011F00C0147D0042949D045
:1033E000082945D00C292ED146E0D84B98420BD164
:1033F000D1F8881011F0300138D010293AD02029A6
:1034000036D030291FD137E0D14B98420BD1D1F8BB
:10341000881011F0C00129D040292BD0802927D055
:10342000C02910D128E090420DD1D1F8881011F4B4
:1034300040611BD0B1F5806F1CD0B1F5006F17D083
:10344000B1F5406F18D01025DFF808A34FF480764F
:103450004FF000094FF4004B90426ED175B1022D30
:1034600029D0042D59D0082D68D176E00025EBE74E
:103470000225E9E70425E7E70825E5E7FEF730FC44
:103480004DE0012851D0022851D0032851D0042802
:1034900051D0052853D0062853D0072853D00828E8
:1034A00053D0092853D00A2853D00B2853D03AE0E0
:1034B000B1FBF0F06CE0606AA8B1012817D00228D7
:1034C00017D0032817D0042817D0052817D00628AE
:1034D00017D0072817D0082817D0092817D00A288E
:1034E00017D00B2817D00121BAFBF1F050E00221D0
:1034F000FAE70421F8E70621F6E70821F4E70A21B4
:10350000F2E70C21F0E71021EEE72021ECE7402163
:10351000EAE78021E8E73146E6E7FEF705FC0146E9
:10352000606A0028ADD10120C2E70220C0E7042074
:10353000BEE70620BCE70820BAE736E14AE00A20E9
:10354000B6E70C20B4E71020B2E72020B0E7402017
:10355000AEE78020ACE73046AAE7606AA8B1012850
:1035600022D0022822D0032822D0042822D00528E5
:1035700022D0062822D0072822D0082822D00928C5
:1035800022D00A2822D00B2822D00120BBFBF0F049
:10359000002820D06168884601EB4101814219D89A
:1035A000B0EB083F16D817E00220EFE70420EDE764
:1035B0000620EBE70820E9E70A20E7E70C20E5E72B
:1035C0001020E3E72020E1E74020DFE78020DDE76F
:1035D0003046DBE701270CE27DB3022D7AD0042DC3
:1035E00071D0082DF6D1606AA8B101286CD00228EC
:1035F0006BD003286AD0042869D0052868D0062833
:1036000067D007287ED008287DD009287CD00A28DA
:103610007BD00B2800D0012632464D460023584669
:103620000021FCF7F5FD090241EA106102024FEAB0
:1036300058001018694142463BE0FFE7FEF750FB97
:1036400096E0012815D0022815D0032815D00428AB
:1036500015D0052815D0062815D0072815D008281C
:1036600015D0092815D00A2815D00B2814D001260A
:1036700012E0022610E004260EE006260CE00826E2
:103680000AE00A2608E00C2606E0102604E02026C0
:1036900002E0402600E08026324600236046FCF728
:1036A000B7FD0902626841EA106103025008181868
:1036B00069410023FCF7ACFD274AA0F54071914217
:1036C00070D987E706E051E05AE05BE05CE05DE03E
:1036D0005EE05FE0606AD0B101281ED002281ED0F3
:1036E00003281ED004281ED005281ED006281ED070
:1036F000072833D0082833D0092833D00A2833D0FC
:103700000B2803E048E049E04AE04CE000D0012605
:1037100032464D460023504682E70226F8E704264B
:10372000F6E70626F4E70826F2E70A26F0E70C2675
:10373000EEE7000000800040F369FFCFFFF4FF11C7
:1037400000380140001002400044004000480040A2
:10375000004C00400024F400FFFC0F001026D7E7C7
:103760002026D5E74026D3E78026D1E7FEF7DCFA0E
:103770008446606A4D46494600283FF478AF60E7CA
:10378000022649E7042647E7062645E7082643E7D9
:103790000A2641E70C263FE710263DE720263BE7B7
:1037A000402639E723E1802636E7E0694FF6EF78D7
:1037B00058456ED1092D84D2DFE805F006093C0595
:1037C00080050505830005E7FEF78AFA01E0FEF7AC
:1037D00099FA0146606AA8B1012815D0022815D0CF
:1037E000032815D0042815D0052815D0062815D093
:1037F000072815D0082815D0092815D00A2815D073
:103800000B2814D0012612E0022610E004260EE058
:1038100006260CE008260AE00A2608E00C2606E048
:10382000102604E0202602E0402600E08026B1FBBE
:10383000F6F01AE0606AA8B101282BD002282BD03C
:1038400003282BD004282BD005282BD006282BD0DA
:1038500007282BD008282BD009282BD00A282BD0BA
:103860000B2800D00126BAFBF6F04100606801EB9E
:103870005001B1FBF0F080B2A0F110014145A2D897
:103880004FF6F0710140C0F3420001432068C1606F
:10389000AFE046E00226E6E70426E4E70626E2E794
:1038A0000826E0E70A26DEE70C26DCE71026DAE742
:1038B0002026D8E74026D6E78026D4E7FEF734FA5C
:1038C00087E7606AA8B1012817D0022817D003281B
:1038D00017D0042817D0052817D0062817D0072896
:1038E00017D0082817D0092817D00A2817D00B2876
:1038F00000D00126BBFBF6F0B7E70226FAE7042664
:10390000F8E70626F6E70826F4E70A26F2E70C268B
:10391000F0E71026EEE72026ECE74026EAE78026CF
:10392000E8E7092DBFF4CDAEDFE805F006093C0558
:103930008305050586004DE6FEF7D2F901E0FEF7A6
:10394000E1F90146606AA8B1012815D0022815D016
:10395000032815D0042815D0052815D0062815D021
:10396000072815D0082815D0092815D00A2815D001
:103970000B2814D0012612E0022610E004260EE0E7
:1039800006260CE008260AE00A2608E00C2606E0D7
:10399000102604E0202602E0402600E08026B1FB4D
:1039A000F6F11AE0606AA8B101282ED002282ED0C4
:1039B00003282ED004282ED005282ED006282ED05D
:1039C00007282ED008282ED009282ED00A282ED03D
:1039D0000B2800D00126BAFBF6F1606801EB50011C
:1039E000B1FBF0F080B2A0F110014145A3D82168ED
:1039F000C8600120A4F86A0024F8680F3846C4F8AB
:103A00000490C4F80890BDE8F09F0226E3E704267E
:103A1000E1E70626DFE70826DDE70A26DBE70C26D6
:103A2000D9E71026D7E72026D5E74026D3E780261A
:103A3000D1E7FEF779F984E7606AA8B1012817D0C9
:103A4000022817D0032817D0042817D0052817D02C
:103A5000062817D0072817D0082817D0092817D00C
:103A60000A2817D00B2800D00126BBFBF6F1B4E7DB
:103A70000226FAE70426F8E70626F6E70826F4E722
:103A80000A26F2E70C26F0E71026EEE72026ECE700
:103A90004026EAE78026E8E72DE9F04198461746F8
:103AA0000E460446069D08E0681C06D0FDF73EFD64
:103AB000A0EB0800A8420BD855B12068C06936EACF
:103AC000000019D00020B842EED00020BDE8F081FF
:103AD0002068016821F4D07101602068816821F0BC
:103AE000010181602020C4F88000C4F88400002017
:103AF00084F87C000320E9E70120E4E7FEE70907FA
:103B0000090E002804DB00F1E02080F80014704763
:103B100000F00F0000F1E02080F8141D704702E073
:103B200008C8121F08C1002AFAD170477047002048
:103B300001E001C1121F002AFBD1704786B0FDF7DA
:103B400003FDFFF7B3F814216846FCF799FB474CD7
:103B5000E06C40F00100E064E06C00F001000590D2
:103B6000E06C40F00200E064E06CDFF8048100F0FB
:103B70000200A6150590002231464046FDF7D0FC14
:103B8000012700250096CDE9017569464046039559
:103B9000FDF7EAFBA06C40F00400A064A06C00F00C
:103BA00004000090A06C40F00100A064A06C002212
:103BB00000F00100009011460B20FDF71BFD0B20CB
:103BC000FDF70AFDFEF77EFFFEF7C2FFFFF742F8A2
:103BD000FFF716F8284827490160802141604021FD
:103BE0000561816007750903856141620911C0E9BA
:103BF0000A15FDF731FD204800213C30FEF72CFE70
:103C0000002231464046FDF78BFC1B487F216C3873
:103C1000FCF778FE6420FDF795FB17480222174950
:103C20006C38FDF713FA14487C30FEF793FB12480A
:103C3000FDF7B2FD0A20FDF785FB104C02E00120E4
:103C4000FDF780FB60686428F9D80D4805600A48D4
:103C500004213C30FEF700FE012231464046FDF7CC
:103C60005FFC6420FDF76EFBFBE7000000100240E4
:103C70000004004804030140BC00002000000020B4
:103C8000382C014000000000000000000102030485
:103C9000060708090000000001020304BC3C0008FC
:103CA00000000020500000001E3B00080C3D0008F2
:103CB00050000020180600002E3B00080000000005
:103CC00000000000000000000000000000000000F4
:103CD00000000000000000000000000000000000E4
:103CE00000000000000000000000000000000000D4
:103CF00000000000000000000000000010000000B4
:0C3D000001000000000000000024F4009E
:04000005080001D915
:00000001FF
